:1000000012C02AC029C028C027C0B3C0FBC12BC260
:1000100023C022C021C020C01FC01EC01DC01CC0E4
:100020001BC01AC019C011241FBECFEDCDBF10E0F8
:10003000A0E6B0E0E8EDF4E002C005900D92A63A2B
:10004000B107D9F710E0A6EAB0E001C01D92AB3BC2
:10005000B107E1F720D13EC2D3CF1F93CF93DF93F7
:100060004FB7F89420E030E015E3C90167E170E094
:100070001FD2FC01E05AFF4F158A148A84899589A2
:10008000938B828BA281B3818C919481892B8C93E9
:10009000CFE4D0E01CC01796ED91FC9118979081A9
:1000A00019968C911997809598239083812F8A9522
:1000B000F1F71796ED91FC911897808119969C9114
:1000C000892B8083812F8A95F1F7219789F0C901C7
:1000D00067E170E0EDD1DC01A05ABF4F1E96ED91B3
:1000E000FC911F97808150969C915097892399F697
:1000F000C90167E170E0DCD1FC01E05AFF4F118AD1
:10010000168A2F5F3F4F2330310509F0AECF4FBF26
:10011000DF91CF911F910895482F8093A600F89406
:100120009091B9008091BA00981719F42FEF3FEF22
:1001300013C0E091BA00F0E0E755FF4F8081282F0F
:1001400030E08091BA008F5F8093BA008091BA004E
:10015000803111F41092BA0078948FEF2F3F380756
:1001600031F44423E1F28091A6008823C1F6C9014D
:1001700008951F920F920FB60F9211242F933F9361
:100180004F938F939F93AF93BF93EF93FF9320E091
:1001900030E041E0D901A05ABF4F52968D919C9119
:1001A0005397892B09F458C054968D919C9155977B
:1001B000019755969C938E93549754968D919C914C
:1001C0005597892B09F048C051968C9151978D39DC
:1001D00071F41296ED91FC911397808114969C9185
:1001E0001497892B808356964C93569713C051963B
:1001F0008C915197882371F41296ED91FC9113978D
:10020000908114968C91149780959823908356969C
:100210001C9256971796ED91FC911897808119962C
:100220009C9119978927808352968D919C91539721
:1002300055969C938E93549756968C9156978823F7
:1002400029F451968C9151978F5F04C051968C91EF
:100250005197815051968C93295E3F4F253431053B
:1002600009F098CFFF91EF91BF91AF919F918F913E
:100270004F913F912F910F900FBE0F901F901895A7
:10028000F8948091A800882321F4949A84E68093BE
:10029000A80078940895FF920F931F93CF93DF9354
:1002A0008D9A95988C9A949820E030E0C90167E186
:1002B00070E0FED0FC01E05AFF4FA581B6818C9121
:1002C0009185892B8C93A781B0858C919185892B01
:1002D0008C93A081B1818C919481892B8C93A28184
:1002E000B3818C919481892B8C93A285B3859C9149
:1002F0008089809598239C93A485B5859C9180895D
:10030000809598239C932F5F3F4F2330310571F6E2
:100310001FBC80E18EBD80E491E095BD84BD8EB5AB
:10032000887F8EBD8EB581608EBD80E889BF10BE8E
:1003300083E083BF89B7826089BF82E08BB988E997
:100340008AB986E083B912B88FEC89B91092BA00E5
:100350008091BA008093B900959A82E38093A700B8
:100360007CDE78948DDF32E3F32E80E0D5DE8CB92D
:100370008436910559F484DF70DEF8941092BA0047
:100380008091BA008093B9007894EFCF85369105BB
:1003900059F476DFF8948091A700882319F4959A90
:1003A000F092A7007894E1CF18161906F4F68C01A4
:1003B0000150104003301105C4F684E6ADDEEC01B7
:1003C0002FEF8F3F920789F284E6A6DE2FEF8F3F53
:1003D000920759F2DC2FCC27C82BD92B8FEFCF3FB8
:1003E000D80709F4C2CF4CDFF894C80167E170E088
:1003F0005FD0FC01E05AFF4FD38BC28BD58BC48BEF
:100400007894B3CF1F920F920FB60F9211248F934F
:100410008091A700882351F08091A700815080939C
:10042000A7008091A700882309F495988091A800DF
:10043000882351F08091A80081508093A80080917A
:10044000A800882309F494988091A600882329F0B5
:100450008091A60081508093A6008F910F900FBECF
:100460000F901F9018951F920F920FB60F921124A4
:100470008F939F93EF93FF93E091B900F0E08CB1DD
:10048000E755FF4F80839091B9009F5F903109F449
:1004900090E08091BA00981711F09093B900FF9105
:1004A000EF919F918F910F900FBE0F901F90189515
:1004B0005527002480FF02C0060E571F660F771FC6
:1004C0006115710521F096958795009799F7952FFD
:0804D000802D0895F894FFCF80
:1004D8003700380080370038001037003800360001
:1004E80002000000000000370038004037003800E4
:1004F800083700380036000100000000000037000F
:100508003800203700380004310032003000400045
:06051800000000000000DD
:00000001FF
